:100000000C9466020C948E020C948E020C948E0258
:100010000C948E020C948E020C948E020C94401060
:100020000C9416100C948E020C948E020C94781082
:100030000C9452100C948E020C948E020C948E022E
:100040000C94AD0E0C948E020C947B0E0C94550EF9
:100050000C948E020C948E020C948E020C948E02E0
:100060000C94F70E0C948E025E20455449414E4D7F
:1000700053555257444B474F4856462A4C2A504AEC
:10008000425843595A512A2A353453332A2A2A329C
:10009000262A2B2A2A2A4A31363D2F2A2A23282A81
:1000A000372A472A382A39305E2A2A2A2A2A2A2A2F
:1000B0002A2A2A2A3F5F2A2A2A5C222A2A2E2A2A28
:1000C0002A2A402A2A2A272A2A2D2A2A2A2A2A2A7A
:1000D0002A2A3B212A292A2A2A2A2A2C2A2A2A2A77
:1000E0003A2A2A2A2A2A2A2A016B524C894C285E4B
:1000F000366D4C2A736155323F2F2723212030382B
:100100003C3E786A4C314C4C5A05181A0C02120EBF
:100110001004170D1407060F161D0A080309110B0A
:10012000191B1C4C404C4C4D0000000024002700C3
:100130002A0000000000250028002B00000000001D
:100140002300260029000404040404040404020219
:100150000202020203030303030301020408102046
:100160004080010204081020010204081020000051
:100170000008000201000003040700000000000066
:100180000000000000000000000000005F5F0000B1
:1001900000000007070000070700147F7F14147F8A
:1001A0007F1400242E6B6B3A1200006333180C6628
:1001B000630000307E4F59377A480000000707007F
:1001C000000000001C3E41410000000041413E1C77
:1001D0000000082A3E1C1C3E2A080008083E3E0873
:1001E000080000000060E00000000008080808089F
:1001F0000800000060600000000000406030180C43
:100200000400003E7F41417F3E000040427F7F402E
:10021000400000727B49494F460000226349497FF4
:10022000360000181C16137F7F1000276745457D98
:100230003900003E7F49497B320000030101797F8C
:10024000070000367F49497F360000266F49497F05
:100250003E00000036360000000000003676000048
:10026000000000081C3622000000000014141414C2
:100270000000000022361C08000000020351590F44
:100280000600003E415D555E0000007C7E0B0B7E4B
:100290007C00007F7F49497F3600003E7F414163FB
:1002A0002200007F7F41633E1C00007F7F4949415F
:1002B0004100007F7F0909010100003E7F41497B29
:1002C0003A00007F7F08087F7F000000417F7F4168
:1002D0000000002060417F3F0100007F7F1C3663EB
:1002E0004100007F7F4040404000007F7F060C06B9
:1002F0007F7F007F7F0E1C7F7F00003E7F41417F1C
:100300003E00007F7F09090F0600001E3F21617F2C
:100310005E00007F7F19396F460000266F49497BD8
:1003200032000001017F7F010100003F7F40407FDC
:100330003F00001F3F60603F1F00007F7F3018308C
:100340007F7F0063771C1C77630000070F78780FAE
:100350000700006171594D47430000007F7F414114
:1003600000000002060C18302000000041417F7F91
:100370000000000804020408000000404040404023
:100380004000000000070700000000207454547C67
:100390007800007E7E484878300000387C44444431
:1003A000000000307848487E7E0000387C54545C61
:1003B00018000000087C7E0A0A000098BCA4A4FC77
:1003C0007C00007E7E08087870000000007A7A00C9
:1003D00000000000C080FA7A0000007E7E103C6CB5
:1003E00040000000027E7E400000007C7C047C0413
:1003F0007800007C7C04047C780000387C44447CD9
:10040000380000FCFC24243C180000183C2424FC88
:10041000FC00007C7C04040C080000485C5454740C
:1004200024000004043E7E444400003C7C40407CA8
:100430007C00001C3C60603C1C00003C7C407C401C
:100440003C0000446C38386C4400009CBCA0E0FCCC
:100450007C00004464745C4C440000083E774141D9
:100460000000000000F7F700000000004141773E67
:100470000800001008081010080000387C44447C74
:1004800038000000487C7C400000004864745C4CEC
:10049000400000286C44547C2800001018107C7C1C
:1004A0001000005C5C547424000000387C545470CC
:1004B0002000000464741C0C040000287C54547C4C
:1004C000280000085C54743C18009E1011241FBEC4
:1004D000CFEFD8E0DEBFCDBF13E0A0E0B1E0ECE6A7
:1004E000F3E302C005900D92A834B107D9F726E0D6
:1004F000A8E4B3E001C01D92A63BB207E1F712E009
:10050000C6E6D2E004C02197FE010E949A19C536C2
:10051000D107C9F70E94EB100C94B4190C94000099
:1005200008950895AF92BF92CF92DF92EF92FF921B
:100530000F931F93CF93DF936C017B018B01040F0B
:10054000151FEB015E01AE18BF08C017D10759F0A7
:100550006991D601ED91FC910190F081E02DC601E9
:100560000995892B79F7C501DF91CF911F910F91E3
:10057000FF90EF90DF90CF90BF90AF900895FC0177
:10058000538D448D252F30E0842F90E0821B930BF8
:10059000541710F0CF96089501970895FC01918D9E
:1005A000828D981761F0A28DAE0FBF2FB11D5D96A1
:1005B0008C91928D9F5F9F73928F90E008958FEF43
:1005C0009FEF0895FC01918D828D981731F0828DF7
:1005D000E80FF11D858D90E008958FEF9FEF08954E
:1005E000FC01918D228D892F90E0805C9F4F821BB2
:1005F00091098F739927089583EF95E00E94F00287
:1006000021E0892B09F420E0822F089580E090E01A
:10061000892B29F00E94FC0281110C94000008959E
:10062000FC01A48DA80FB92FB11DA35ABF4F2C9167
:10063000848D90E001968F739927848FA689B7895E
:100640002C93A089B1898C91837080648C93938D55
:10065000848D981306C00288F389E02D80818F7DF8
:1006600080830895EF92FF920F931F93CF93DF93B0
:10067000EC0181E0888F9B8D8C8D98131AC0E889DE
:10068000F989808185FF15C09FB7F894EE89FF89AD
:100690006083E889F98980818370806480839FBF4B
:1006A00081E090E0DF91CF911F910F91FF90EF904B
:1006B0000895F62E0B8D10E00F5F1F4F0F7311275B
:1006C000E02E8C8D8E110CC00FB607FCFACFE88996
:1006D000F989808185FFF5CFCE010E941003F1CF0B
:1006E000EB8DEC0FFD2FF11DE35AFF4FF0829FB70A
:1006F000F8940B8FEA89FB8980818062CFCFCF93FA
:10070000DF93EC01888D8823B9F0AA89BB89E88939
:10071000F9898C9185FD03C0808186FD0DC00FB6DF
:1007200007FCF7CF8C9185FFF2CF808185FFEDCF5D
:10073000CE010E941003E9CFDF91CF91089583305D
:1007400081F028F4813099F08230A9F00895873043
:10075000A9F08830C9F08430B1F4809180008F7D99
:1007600003C0809180008F7780938000089584B5C6
:100770008F7784BD089584B58F7DFBCF8091B000C5
:100780008F778093B00008958091B0008F7DF9CF6E
:10079000CF93DF93282F30E0F901E259FE4F849187
:1007A000F901E65AFE4FD491F901EA5BFE4FC4917C
:1007B000CC23A1F081110E949F03EC2FF0E0EE0FFB
:1007C000FF1FE45CFE4FA591B491EC91ED2381E015
:1007D00090E009F480E0DF91CF91089580E090E00F
:1007E000FACF1F93CF93DF93282F30E0F901E2591E
:1007F000FE4F8491F901E65AFE4FD491F901EA5B6C
:10080000FE4FC491CC23A9F0162F81110E949F03A3
:10081000EC2FF0E0EE0FFF1FEE5CFE4FA591B491C0
:100820008FB7F894EC91111108C0D095DE23DC93BA
:100830008FBFDF91CF911F910895DE2BF8CFCF931B
:10084000DF9390E0FC01E65AFE4F24918A5B9E4FB5
:10085000FC0184918823D1F090E0880F991FFC015E
:10086000E85DFE4FA591B491FC01EE5CFE4FC59191
:10087000D49161110EC09FB7F8948C91E22FE0954E
:100880008E238C932881E223E8839FBFDF91CF9151
:1008900008958FB7F894EC91E22BEC938FBFF6CFCD
:1008A0003FB7F8948091BD039091BE03A091BF0320
:1008B000B091C00326B5A89B05C02F3F19F0019643
:1008C000A11DB11D3FBFBA2FA92F982F8827BC01AA
:1008D000CD01620F711D811D911D42E0660F771FD2
:1008E000881F991F4A95D1F708958F929F92AF92D2
:1008F000BF92CF92DF92EF92FF926B017C010E9438
:1009000050044B015C01C114D104E104F104B9F0BD
:100910000E945004681979098A099B09683E73404E
:100920008105910580F321E0C21AD108E108F108A0
:1009300088EE880E83E0981EA11CB11CE4CFFF90C6
:10094000EF90DF90CF90BF90AF909F908F900895E1
:100950002FB7F8946091B9037091BA038091BB03EB
:100960009091BC032FBF089520919503260F332744
:10097000331F21323105ECF42091C905FC0190E0D0
:1009800080E0243069F082E00895A09195032191E0
:10099000AC014B585C4FA40FB52FB11D2C930196A1
:1009A000861798F380919503680F6093950380E014
:1009B000089581E008951092C90581E08093C805EB
:1009C0001092A30561E082E10E94F10361E083E1FE
:1009D0000E94F103E9EBF0E080818E7F80838081CB
:1009E0008D7F808388E48093B80085E48093BC0089
:1009F0000895CF93DF9391E0909374038823B9F027
:100A0000C091B800D091BA008091BC008A7B8093DD
:100A1000BC0060E082E10E94F10360E083E10E949B
:100A2000F1030E94DB04D093BA00C093B800DF91B9
:100A3000CF910895CF92DF92EF92FF920F931F9381
:100A4000CF93DF93D091F20581E0D13208F09CC0C2
:100A5000C091F1050E9450046B017C018091C90591
:100A600081116CC082E08093C90581E08093C80544
:100A70008FEF8093C7051092C605D093C505A1EDF1
:100A8000B5E0E5EAF5E080E0D8138DC01092A4054A
:100A90008091A405CC0FC82BC093A4058091A30519
:100AA000813009F084C01092A3050E9450046B01AC
:100AB0007C018091A4058093BB008091CB0590912F
:100AC000CC05A091CD05B091CE05892B8A2B8B2B1F
:100AD000A1F00E9450040091CB051091CC0520910B
:100AE000CD053091CE056C197D098E099F09061739
:100AF00017072807390708F442C08091BC0083FD1E
:100B0000D8CF85EC8093BC000E9450046B017C011F
:100B10008091C905823009F44CC08091C7058F3F90
:100B200009F469C08091C705803209F466C08091DC
:100B3000C705803309F463C084E026C08091CB05EB
:100B40009091CC05A091CD05B091CE05892B8A2B33
:100B50008B2B09F483CF0E9450040091CB05109198
:100B6000CC052091CD053091CE056C197D098E09FB
:100B70009F09061717072807390708F06FCF8091DC
:100B8000CA050E94F90485E01092D0051092F20582
:100B90001092CF05DF91CF911F910F91FF90EF90B1
:100BA000DF90CF9008959D9191938F5F6DCF85EEEB
:100BB000A9CF8091CB059091CC05A091CD05B091A6
:100BC000CE05892B8A2B8B2B09F4A2CF0E945004CF
:100BD0000091CB051091CC052091CD053091CE052B
:100BE0006C197D098E099F09061717072807390711
:100BF00008F08ECFC4CF80E0C7CF82E0C5CF83E0BE
:100C0000C3CF0895E091C6038091C503E81730F47F
:100C1000F0E0EC5AFC4F808190E008958FEF9FEF59
:100C200008959091C6038091C5032FEF3FEF981769
:100C300048F4E92FF0E0EC5AFC4F208130E09F5F50
:100C40009093C603C90108958091C5039091C6038E
:100C5000891B990B0895CF92DF92EF92FF920F9329
:100C60001F93CF93DF937C01CB018A012091CF05A5
:100C7000222389F0EB016B01C40ED51ECC15DD05D6
:100C800069F06991D701ED91FC910190F081E02D1F
:100C9000C7010995F3CF642F0E94B404C801DF9106
:100CA000CF911F910F91FF90EF90DF90CF9008951B
:100CB000CF93DF931F92CDB7DEB769832091CF0525
:100CC0002223F9F02091F205203258F021E030E0A3
:100CD000FC013383228390E080E00F90DF91CF917D
:100CE00008958091D005E82FF0E0EF52FA4F9981F6
:100CF00090838F5F8093D0058093F20581E090E030
:100D0000ECCF61E0CE0101960E94B404F7CF682FCA
:100D100082E996E00C945806442391F16093A00672
:100D20008093A106880F880F880F80939E06660F18
:100D30006670616060939F0681E08093CF058CE3CD
:100D40008093F1051092D0051092F20590E080E0BA
:100D50000E94870680919F06806B90E00E94870624
:100D600080919E0682958F70806190E00E94870638
:100D700080919E068F7090E00E9487060C941A0561
:100D800080939E0680919F06867080939F06D4CFA5
:100D900090E080E00895CF93C82F81E08093CF0545
:100DA0008CE38093F1051092D0051092F20580E457
:100DB00090E00E9487066C2F82E996E00E94580618
:100DC000CF910C941A050F931F93CF93DF9390EE5E
:100DD000980F9A3608F080E28052990B23E0880F32
:100DE000991F2A95E1F7C2EAD6E0DE0130E020E063
:100DF0008E579E4FFC01E20FF31FE49154E040E058
:100E000063E071E0FE2FF72309F0462B770F660FA2
:100E1000660F5150B9F71A964C931A9754E040E078
:100E200063E070E1FE2FF72309F0462B770F660F82
:100E3000660F5150B9F74D932F5F3F4F2830310562
:100E4000C9F60AEA16E089910E94CB060C171D0725
:100E5000D1F740E060919F0680919E060E948C062B
:100E6000CCEAD6E089910E94CB0686E0C43BD80745
:100E7000C9F78091A1068F5F8093A10641E0609140
:100E8000A006DF91CF911F910F910C948C06CF9308
:100E9000DF93EC018991882349F08A30D9F390914E
:100EA0009E069937B8F70E94E306F4CFDF91CF9101
:100EB0000895CF93DF9300D000D0CDB7DEB7409137
:100EC0005F015091600160916101709162014983FD
:100ED0005A836B837C8322E03AE0811114C029811C
:100EE0009A813C818B812032F9F029839A838B830C
:100EF000CE0101960E9447070F900F900F900F9020
:100F0000DF91CF910895A1E0B0E0AC0FBD1FA20F1B
:100F1000B11D632F0E947A19E92FF0E0ED59FE4FC1
:100F200090819C932150D9CF292F982F832FDBCFED
:100F3000CF93C0919E06C7FD05C080E00E94CB06FE
:100F4000CF5FF9CF60919F066F5F40E080919E0672
:100F50000E948C06C0919E06C7FD05C080E00E94DD
:100F6000CB06CF5FF9CFCF910895CF93DF93D82FE2
:100F700041E0682F80E00E948C06C0E080E00E9483
:100F8000CB06CF5FC038D1F740E060919F0680E08C
:100F90000E948C06C0E080E00E94CB06CF5FC03884
:100FA000D1F741E06D2F80E0DF91CF910C948C065A
:100FB00080E00E94B50781E00E94B50782E00E94B0
:100FC000B50783E00C94B507CF93C82F81E08093D9
:100FD000CF058CE38093F1051092D0051092F205B5
:100FE00090E080E00E9487066C2F82E996E00E94E4
:100FF0005806CF910C941A0561E084E00E94F10339
:101000008091A205882321F061E08AE00E94F1032B
:1010100080910701882319F086E08093700008957D
:10102000CF93C82F0E94FC0780910301880F8C2B5F
:1010300080930301CF910895AC0190E0E92FF0E097
:10104000DB01AE0FBF1F2C91E40FF51F222319F017
:101050009F5F2083F3CF108208959C0180E041E0E0
:10106000480FF901E80FF11D9081911101C0089519
:10107000842FF5CF0F931F93CF93DF93C09102017D
:10108000D0E080EB94E0BE010E9486197093D403F7
:101090006093D30380E19EE0BE010E9486198B011C
:1010A0007093CE036093CD03BE010D2E000C880B10
:1010B000990B0E94EE189B01AC0160E070E88BE395
:1010C00095E40E944B180E94BD187093CB03609367
:1010D000CA0310934D0300934C031093C90300936C
:1010E000C80380ED90E2BE010E94861970934B0305
:1010F00060934A03DF91CF911F910F910895813042
:1011000019F0823041F0089580ED8093B30088E6B5
:101110008093B40008958EEA8093B30087E5F8CFFA
:10112000823079F028F4882349F0813059F008950D
:10113000843069F050F0853061F0089510928A0093
:10114000089583E080938A00089587E0FBCF8FE1C4
:10115000F9CF8FEFF7CFCF93DF9360914903C09121
:101160004803643078F4C03168F4D82F41E08C2F04
:101170000E948C06DE35C9F40E94D80710924903FC
:1011800010924803809148038031F8F01092480390
:10119000809149038F5F8430A8F480934903809144
:1011A0004903DF91CF910C94B507DA3039F0809183
:1011B0009E06893718F48D2F0E94E306CF5FC093F7
:1011C0004803E0CF10924903EACFDF91CF91089511
:1011D000CF93DF9380910301CEE587FD05C0E82F13
:1011E000F0E0E859FF4FC491853451F0853C81F41B
:1011F000CEE6D1E08991882309F10E94AB08FACFAD
:10120000C3E7D1E089918823C9F00E94AB08FACFE7
:101210008C2F0E94AB0880919A05882379F087ED86
:1012200093E00E942D08E82FF0E0E952FC4FC083C4
:101230008F5FE82FF0E0E952FC4F1082DF91CF91F1
:1012400008950F931F93CF93DF93CDB7DEB76497C5
:101250000FB6F894DEBF0FBECDBFE0E1823021F0C3
:10126000E0E0833009F4E0E2DE01119690E08D01C8
:1012700021E02E0F9F5FF0E0E952FC4F30813D935B
:10128000E22FF0E0E952FC4F3081332319F0E22FD6
:10129000903171F7F801E90FF11D108241E0682FDC
:1012A00080E00E948C06C8010E9447070E949807B0
:1012B00064960FB6F894DEBF0FBECDBFDF91CF911D
:1012C0001F910F910895CF93DF93EB0141E0682FB9
:1012D00080E00E948C06CE010E944707DF91CF91EB
:1012E0000C94980781E08093050180919A05811103
:1012F00007C00E94D80768E771E080E00E94630998
:101300006CEB72E080E090E00E9475040E94D807C8
:10131000109249031092480308950F931F93CF939F
:10132000DF93C82FD62F41E060E080E00E948C065A
:10133000C230C9F1C33009F452C081E891E0C13034
:10134000A1F10091510310915203C8010E942D0890
:10135000C82FB80187ED93E00E941C08DD2391F0AF
:10136000E0915003F0E0E952FC4F80819FEB980F31
:101370009A3110F4805E808390ED980F9A3090F54A
:10138000815B8083C13190F567ED73E081E00E945D
:10139000630982E00E94B50783E0DF91CF911F913E
:1013A0000F910C94B5078FE891E00E944707C09118
:1013B00004018C2F0E9459070E9498072C2F21505E
:1013C000330BC90142E3489F9001499F300D11241E
:1013D000275F3B4F3093520320935103B2CF8DE9E7
:1013E00091E0E3CF803271F68FE5CBCFC13238F494
:1013F00081E00E94210982E00E942109CDCFC13302
:1014000068F481E00E94210982E00E94210983E0C2
:10141000DF91CF911F910F910C942109DF91CF9112
:101420001F910F9108951092A0050E94A804609347
:101430009C0570939D0580939E0590939F058091D8
:101440000601811106C081E0809306018FEA0C94A9
:10145000E4070895EF92FF920F931F93CF93DF93CA
:1014600082E00E94C8037C0183E00E94C8038C01D3
:1014700082E00E94C803EC0183E00E94C8039C0143
:10148000EF2861F4CD2B51F49091D5038091C703DF
:10149000882309F451C092609093D503012B61F425
:1014A000232B51F48091D5039091C703992309F41C
:1014B00045C081608093D5038091D503982F9370A8
:1014C000933019F488608093D5038091D50383709D
:1014D000B9F5809106018130D9F50E94A8040091E8
:1014E0009C0510919D0520919E0530919F05601BE4
:1014F000710B820B930B693E73408105910540F19E
:101500000E94A80460939C0570939D0580939E059E
:1015100090939F058091A0058F5F8093A0058937E8
:10152000B8F0109206018EEADF91CF911F910F91D2
:10153000FF90EF900C94E4079160AECF8260BACF39
:10154000DF91CF911F910F91FF90EF900C94130AB0
:10155000DF91CF911F910F91FF90EF900895CF935E
:10156000DF9386E00E94C803EC0187E00E94C80375
:101570009C0191E0CD2B09F090E0C1E0232B09F014
:10158000C0E0C92B6AE070E080E090E00E94750442
:10159000C111E7CFDF91CF91089586E00E94C80383
:1015A00021E0892B09F020E02093A10587E00E942B
:1015B000C8039C0181E02115310509F080E080938A
:1015C0009B05232B19F491E09093A1059091A1051F
:1015D000911181E008952F923F924F925F926F9206
:1015E0007F928F929F92AF92BF92CF92DF92EF92B3
:1015F000FF920F931F93CF93DF93CDB7DEB7A997D9
:101600000FB6F894DEBF0FBECDBF0E94D80760E0D2
:1016100082E00E948D0918E001E00E94130A0E94F6
:10162000CD0A811135C01092D5030E942A0A9091EB
:10163000D50391FF05C0809104018F5F8093040161
:1016400090FF05C080910401815080930401809136
:101650000401811102C010930401809104018930BA
:1016600010F0009304018091D50383701092D5038C
:10167000882349F00E942A0A6AE070E080E090E046
:101680000E947504F0CF60E082E00E948D09C5CF12
:101690001091A105112339F181E0809399050E94F1
:1016A000A8046B017C0120E9C20E21E0D21EE11CDE
:1016B000F11C02E0809199058230A9F00E94A804F3
:1016C000C616D706E806F90610F40093990586E0D9
:1016D0000E94C8035C016AE070E080E090E00E9434
:1016E0007504AB2839F380919905823009F08EC1D9
:1016F0001092990581E08093A10510929B0561E00D
:1017000080E00E948D090E94AF0A11E007E285E2A5
:10171000282E94E2992E22E0822E30E2332E0E946F
:10172000130A1092D5030E942A0A8091D50381FDE5
:101730001093530380FF03C04FEF409353039091E6
:101740005303992309F444C080915003209151031D
:1017500030915203280F311D87FD3A95F9018081A0
:101760004FEB480F4A3108F09DC040934E0349E2C9
:10177000EAEAF1E0DE01119601900D924A95E1F757
:1017800040914F03411104C08093000110934F0317
:1017900080914E03980F98320CF0A1C090934E03A5
:1017A00080914E0387FD00934E0380914E03E1E04C
:1017B000F0E0EC0FFD1FE80FF11D87FDFA95808129
:1017C000F90180831092530361E080E00E948D094B
:1017D0001092D50386E00E94C8037C0181E0E114E9
:1017E000F10409F080E08093A10587E00E94C8031E
:1017F0006C0181E0C114D10409F080E080939B0565
:10180000E114F10429F5109399050E94A8042B0115
:101810003C01F0E94F0EF1E05F1E611C711C8091EC
:1018200099058230A9F00E94A8044616570668065A
:10183000790610F48092990586E00E94C8035C0145
:101840006AE070E080E090E00E947504AB2839F314
:1018500080919905823009F045C01092990581E088
:101860008093A10510929B0560E080E00E948D09A5
:10187000A9960FB6F894DEBF0FBECDBFDF91CF9112
:101880001F910F91FF90EF90DF90CF90BF90AF909E
:101890009F908F907F906F905F904F903F902F9090
:1018A0000C94AF0A40ED480F4A3018F44AEE480F46
:1018B0005CCF803219F490924E0359CF833219F4E1
:1018C00020924E0354CF8E3521F4F6E2F0934E036E
:1018D0004ECF853209F04BCF00934E0348CF109284
:1018E0004E035ECFEF2839F0CD2809F018CF809154
:1018F0005003815003C0809150038F5F8093500349
:1019000087ED93E00E942D0890915003292F092E16
:10191000000C330B8217130609F0C4F51092500324
:10192000E0905103F0905203C7010E942D08A701D7
:1019300030E020E0823388F1E0905103F0905203D0
:10194000C7010E942D084E2D9701922F941B9817C6
:1019500038F4F9012F5F3F4F90819532B1F7108233
:10196000C7010E942D0890E0981708F048C0F701C1
:10197000E90FF11D2081233239F4292F3181319370
:101980002F5F8213FBCF81509F5FEECF97FFC8CFB1
:10199000815080935003C4CF9B01281768F6DA0169
:1019A0004F5F5F4FB9016F5F7F4F9C919E35A1F7ED
:1019B00040915003042E000C550B982FE92FF0E0B6
:1019C0004E175F0764F46F01CE0CDF1CB601615047
:1019D0007109FB016081F60160839150EFCF909116
:1019E00000019C932E0D3F1DF9013182E80EF11C80
:1019F000F701118261E080E00E948D099DCF61E0D6
:101A000080E00E948D0910924F0389CE0E94AF0A98
:101A100080919B058823F1F080910501815080938E
:101A20000501A9960FB6F894DEBF0FBECDBFDF91BA
:101A3000CF911F910F91FF90EF90DF90CF90BF90CB
:101A4000AF909F908F907F906F905F904F903F905E
:101A50002F900895112329F3809105018F5FDFCF27
:101A600060E084E00E94F1038091A205882321F0C8
:101A700060E08AE00E94F10380910701882351F021
:101A80001092700010926F0088E08093810060E0F7
:101A90000C94F10308954F925F926F927F929F9200
:101AA000AF92BF92CF92DF92EF92FF920F931F936C
:101AB000CF93DF937C01962E662331F01092490379
:101AC000109248030E94D807D0E087010D0F111D26
:101AD000D801EC91EE2309F45AC0E052E03488F4C6
:101AE000F0E0E851FF4FC49160914A0370914B03BD
:101AF000C130E1F190E8B92E8B2D8C2359F4B694C6
:101B0000FBCFCCE4F7CF0E94300DB60190E080E02F
:101B10000E947504B1E0BB1629F1AB2CB12CB59431
:101B2000A794BA2C0E94FC07C090D303D090D40392
:101B3000AC226090CD037090CE03A11001C036019D
:101B40000E94A8049B01AC01260D371D411D511DAB
:101B500029013A016415750586059705A0F60E94CE
:101B6000A804F8CF60914C0370914D0390E080E0A1
:101B70000E947504911002C0DF5FA7CFD8018C913D
:101B80000E94AB0886E00E94C803892BA9F7DF9169
:101B9000CF911F910F91FF90EF90DF90CF90BF906A
:101BA000AF909F907F906F905F904F9008951F939C
:101BB000CF93DF93EC01162F0E942B18811749F069
:101BC000612FCE010E943D1881E0DF91CF911F91DE
:101BD000089580E0FACF85ED8093BC008091CB051D
:101BE0009091CC05A091CD05B091CE050796A11D91
:101BF000B11D23E0B695A795979587952A95D1F7BE
:101C00002091BC0024FD03C01092C90508954091A5
:101C1000CB055091CC056091CD057091CE05452B3B
:101C2000462B472B69F30097A105B10541F025E349
:101C30002A95F1F700000197A109B109E1CF809140
:101C4000CA050C94F904CF93DF936091020190E0F0
:101C500080E00E94D70D6091CC0381E090E00E946B
:101C6000D70D6091070182E090E00E94D70D60914E
:101C7000010183E090E00E94D70D6091C70384E0EA
:101C800090E00E94D70DC5E0D0E041E050E0BE01F9
:101C9000CE018C5F9B4F0E9433182196C53981E09D
:101CA000D80799F7DF91CF9108951F920F920FB641
:101CB0000F9211242F933F934F935F936F937F93D2
:101CC0008F939F93AF93BF93EF93FF9383EF95E031
:101CD0000E941003FF91EF91BF91AF919F918F915F
:101CE0007F916F915F914F913F912F910F900FBE18
:101CF0000F901F9018951F920F920FB60F921124FC
:101D00002F938F939F93EF93FF93E0910306F091AE
:101D100004068081E0910906F0910A0682FD1BC04D
:101D2000908180910C068F5F8F7320910D06821732
:101D300041F0E0910C06F0E0ED50FA4F958F809362
:101D40000C06FF91EF919F918F912F910F900FBEF5
:101D50000F901F9018958081F4CF1F920F920FB6AD
:101D60000F9211242F933F938F939F93AF93BF9321
:101D70008091B9039091BA03A091BB03B091BC03C9
:101D80003091B80323E0230F2D3758F50196A11D9C
:101D9000B11D2093B8038093B9039093BA03A09325
:101DA000BB03B093BC038091BD039091BE03A0918F
:101DB000BF03B091C0030196A11DB11D8093BD0367
:101DC0009093BE03A093BF03B093C003BF91AF91A4
:101DD0009F918F913F912F910F900FBE0F901F9069
:101DE000189526E8230F0296A11DB11DD2CF1F9290
:101DF0000F920FB60F9211242F933F934F935F933F
:101E00006F937F938F939F93AF93BF93EF93FF93C2
:101E10008091B900887F803609F44AC0F0F5883295
:101E200009F4A7C018F5803109F49BC0B8F48823E1
:101E300009F4F9C0883009F494C0FF91EF91BF9183
:101E4000AF919F918F917F916F915F914F913F9152
:101E50002F910F900FBE0F901F901895883109F4A5
:101E600088C0803251F78093C70514C0803409F4CC
:101E70009DC040F48033B9F38833F9F68093C705E9
:101E800085ECB0C0803509F485C0883509F496C06A
:101E9000883499F60E94EB0DD0CF883909F48CC0B4
:101EA00038F5883729F050F4883611F0803729F654
:101EB00083E08093C9051092B70357C0883809F4AE
:101EC0007BC0803919F0803809F0B7CF8091B70313
:101ED000803208F071C0E091B70381E08E0F8093EB
:101EE000B7038091BB00F0E0E956FC4F80833DC012
:101EF000803B39F0E0F4803A09F479C0883A09F07F
:101F00009CCF84E08093C9051092960310929503AC
:101F1000E091C303F091C403099580919503811169
:101F20000FC081E0809395031092750309C0803C37
:101F300009F4A6CF883C09F4A3CF883B09F07DCFF4
:101F4000E091960381E08E0F80939603F0E0EB58CA
:101F5000FC4F80818093BB00909196038091950304
:101F600029C08091A4058093BB0085EC8093BC00C0
:101F700064CF9091C6058091C505981758F5E091FA
:101F8000C60581E08E0F8093C605F0E0EB55FA4F51
:101F90008081E9CFE091C60581E08E0F8093C60570
:101FA0008091BB00F0E0EB55FA4F80839091C6051D
:101FB0008091C5059817C8F285E8D8CFE091C6058D
:101FC00081E08E0F8093C6058091BB00F0E0EB5559
:101FD000FA4F80838091C80581115CCF81E08093A6
:101FE000A30584EA8093BC001092C90526CF85EC36
:101FF0008093BC001092C9058091B703803230F401
:10200000E091B703F0E0E956FC4F10826091B7030E
:1020100070E0E091C103F091C20387E993E0099574
:102020001092B7030ACF1092C70534CF1F920F92B8
:102030000FB60F9211242F933F934F935F936F939B
:102040007F938F939F93AF93BF93EF93FF931092E0
:102050006F0088E08093810060E00E94F103FF91AF
:10206000EF91BF91AF919F918F917F916F915F9110
:102070004F913F912F910F900FBE0F901F90189589
:102080001F920F920FB60F9211248F9389E08093C5
:10209000810086E080936F008F910F900FBE0F90AC
:1020A0001F9018951F920F920FB60F9211242F9325
:1020B0003F934F935F936F937F938F939F93AF93D0
:1020C000BF93EF93FF9360E088E00E94F103FF91DC
:1020D000EF91BF91AF919F918F917F916F915F91A0
:1020E0004F913F912F910F900FBE0F901F90189519
:1020F0001F920F920FB60F9211242F933F934F937D
:102100005F936F937F938F939F93AF93BF93EF935F
:10211000FF9361E088E00E94F103FF91EF91BF918E
:10212000AF919F918F917F916F915F914F913F916F
:102130002F910F900FBE0F901F901895E3EFF5E0D1
:102140001382128288EE93E0A0E0B0E0848395834E
:10215000A683B7832FE331E03183208325EC30E081
:102160003587248724EC30E03787268720EC30E061
:10217000318B208B21EC30E0338B228B22EC30E052
:10218000358B248B26EC30E0378B268B118E128E0C
:10219000138E148E24E630E030939106209390063F
:1021A000E2E9F6E01382128284839583A683B783E3
:1021B00081E591E0918380838AE0E2EAF6E0DF0145
:1021C000982F1D929A95E9F7ECEAF6E0DF011D924F
:1021D0008A95E9F70895789484B5826084BD84B5C2
:1021E000816084BD85B5826085BD85B5816085BD12
:1021F00080916E00816080936E00109281008091CA
:102200008100826080938100809181008160809351
:102210008100809180008160809380008091B10076
:1022200084608093B1008091B00081608093B000A1
:1022300080917A00846080937A0080917A00826035
:1022400080937A0080917A00816080937A008091F7
:102250007A00806880937A001092C10060E082E08A
:102260000E941F0460E083E00E941F0460E086E09B
:102270000E941F0460E087E00E941F0461E084E088
:102280000E941F0461E088E00E941F0461E08AE070
:102290000E941F0460E084E00E94F10360E088E097
:1022A0000E94F10360E08AE00E94F10310926F0047
:1022B0001092800088E08093810083E08093890001
:1022C0008FEF8093880010928B008FE180938A00BB
:1022D000109270001092B600C2E0C093B000D5E03A
:1022E000D093B10080ED8093B30088E68093B40072
:1022F000109270001092C6031092C5031092D00580
:102300001092F2050E94DB0480E992E09093C403EE
:102310008093C30381E992E09093C2038093C10349
:10232000D093B800E0910306F0910406C083E091D9
:10233000FF05F09100061082E0910106F09102067F
:1023400080E1808310920B06E0910706F091080669
:1023500086E08083E0910506F09106068081806129
:102360008083E0910506F091060680818860808375
:10237000E0910506F0910606808180688083E091F7
:102380000506F091060680818F7D808390E080E0D5
:102390000E942B188093020181E090E00E942B188C
:1023A0008093CC0382E090E00E942B188093070179
:1023B00083E090E00E942B188093010184E090E07C
:1023C0000E942B188093C703C5E0D0E041E050E0A5
:1023D000BE01CE018C5F9B4F0E941B182196C53910
:1023E00021E0D20799F789E1809302010E943A081F
:1023F000809107010E949008809101010E947F084E
:1024000081E08093CF058CE38093F1051092D00595
:102410001092F20590E080E00E948706C8E0D1E0CB
:10242000699182E996E00E94580681E0C132D8079E
:10243000B9F70E941A058BE891E00197F1F70E9425
:10244000D80763ED71E080E00E94630960EE71E0FF
:1024500081E00E94630966EE71E082E00E946309F8
:102460000E94A80460939C0570939D0580939E052F
:1024700090939F0568EB7BE080E090E00E947504FC
:102480000E94D80760E0A62E60E0B62ED2E078E089
:10249000972EE8E26E2EC1E049E1842E5AE0752EB7
:1024A00086E00E94C80321E0892B09F020E080919A
:1024B000A105282B2093A1052223A9F01092A005A5
:1024C0000E94A80460939C0570939D0580939E05CF
:1024D00090939F0580910601811105C0C09306016C
:1024E0008FEA0E94E40780910501811106C01092D5
:1024F000A10510929B050E94720980919A0588237C
:10250000C1F186E00E94C8038C0181E0011511052C
:1025100009F080E08093A10587E00E94C80321E0D4
:10252000009709F020E020939B05012B19F0892BDF
:1025300009F0D7C010929A051092A10510929B0540
:1025400010929905209104012150330B42E3429FE0
:10255000C001439F900D112467ED73E0875F9B4F8F
:102560000E941C080E94AF0A89E0809305010E9426
:10257000EB0A8091A105882309F4B3C0C0939905A3
:102580000E94A8046B017C0120E9C20E21E0D21E4A
:10259000E11CF11C109199058091A1058823D9F0C7
:1025A0001230C9F00E94A804C616D706E806F9063C
:1025B00010F4D093990586E00E94C80321E0892B8E
:1025C00009F020E02093A1056AE070E080E090E04F
:1025D0000E947504DFCF1092A10510929B05113067
:1025E00009F09DC3E0910501E150EA3008F094C381
:1025F000F0E0E350FD4E0C949A1907138A13DF1391
:102600003C149A14EB14361580150A160D16109109
:1026100002010E94D80762EF71E080E00E94630926
:102620000E94130A0E94CD0A81113EC01092D50368
:102630000E942A0A9091D50391FF05C08091020162
:102640008F5F8093020190FF05C08091020181504D
:1026500080930201809102018A3010F4709202018D
:1026600080910201893210F0609202018091D503BD
:1026700083701092D503882349F00E942A0A6AE0E9
:1026800070E080E090E00E947504F0CF41E061E0EE
:1026900080E00E948C06809102010E9459078BEF16
:1026A00091E00E944707BCCF0E94AF0A80919B0532
:1026B000882319F01092050112C08091A10588238A
:1026C00071F080910201181741F00E943A0860E011
:1026D00080E092E00E944B0DEDCFD0930501109267
:1026E00099058091D603823009F4E7C308F07FC3CF
:1026F000882309F496C4813009F49BC3A114B10462
:1027000009F4CECE0E94FC02882309F4C4CE0E94B4
:102710000000C1CE1091CC030E94D80763E072E0A4
:1027200080E00E9463090E94130A0E94CD0A811171
:1027300030C01092D5030E942A0A8091D50383707D
:1027400029F08091CC038F5F8093CC038091CC03E0
:10275000823010F01092CC038091D50383701092D8
:10276000D503882349F00E942A0A6AE070E080E0DD
:1027700090E00E947504F0CF8091CC03882329F06B
:10278000813089F665E172E002C06CE072E081E0C0
:10279000C8CF0E94AF0A80919B05882319F0C0938F
:1027A00005019DCF8091A105882309F498CF8091E0
:1027B000CC0318138CCF83E08093050190CF109148
:1027C00007010E94D8076EE172E080E00E94630971
:1027D00005E00E94130A0E94CD0A811139C01092AF
:1027E000D5030E942A0A9091D50391FF05C08091DC
:1027F00007018F5F8093070180910701882329F0EB
:1028000090FF03C0815080930701809107018630BB
:1028100010F0009307018091D50383701092D503C7
:10282000882349F00E942A0A6AE070E080E090E084
:102830000E947504F0CFE0910701F0E0EE0FFF1F5A
:10284000EF5DFE4F6081718181E00E946309C1CF1D
:102850000E94AF0A80919B0581113FCF8091A10515
:10286000882309F43CCF80910701181719F00E94C2
:1028700090082DCF84E0A0CF109101010E94D807CD
:1028800068E272E080E00E9463090E94130A0E94DD
:10289000CD0A81113BC01092D5030E942A0A909163
:1028A000D50391FF05C0809101018F5F80930101E5
:1028B00090FF05C0809101018150809301018091BA
:1028C0000101811102C0D093010180910101833087
:1028D00010F0C09301018091D50383701092D5034D
:1028E000882349F00E942A0A6AE070E080E090E0C4
:1028F0000E947504F0CFE0910101F0E0EE0FFF1FA0
:10290000E35DFE4F6081718181E0BDCF0E94AF0A1F
:1029100080919B0581114FCF8091A105882309F4F7
:10292000DECE80910101181719F00E947F08CFCEEA
:1029300085E042CF8091C703823010F01092C70328
:102940001091C7030E94D80764E372E080E00E9400
:1029500063090E94130A0E94CD0A81112BC01092B4
:10296000D5030E942A0A8091D5038370B1F081E0DB
:102970009091C703911180E08093C7038091D503A4
:10298000837059F01092D5030E942A0A6AE070E021
:1029900080E090E00E947504F1CF1092D503E091A1
:1029A000C703F0E0EE0FFF1FED5CFE4F6081718109
:1029B00081E0CDCF0E94AF0A80919B0581115ACF53
:1029C0008091A105882309F48ACE8091C70318134A
:1029D0007ECE86E0F1CE1091A2050E94D8076FE36B
:1029E00072E080E00E9463090E94130A0E94CD0AEF
:1029F00081112BC01092D5030E942A0A8091D50321
:102A00008370B1F081E09091A205911180E08093F4
:102A1000A2058091D503837059F01092D5030E94CE
:102A20002A0A6AE070E080E090E00E947504F1CF2D
:102A30001092D503E091A205F0E0EE0FFF1FE95CD4
:102A4000FE4F6081718181E0CDCF0E94AF0A8091FD
:102A50009B0581116DCF8091A105882309F43FCE9C
:102A60008091A205181333CE87E0A6CE0E94D80726
:102A700066E472E080E00E94630963E572E081E051
:102A80000E9463090E94130A0E94CD0A81112AC084
:102A90001092D5030E942A0A8091D503837091F386
:102AA0000E94230E0E94D80762E672E080E00E9436
:102AB000630960E772E081E00E9463096CEB72E0F9
:102AC00080E090E00E9475041092D503C093A105A8
:102AD0000E94AF0A80919B05882331F08091050107
:102AE00081506ACE10E0F4CF8091A105882309F4CB
:102AF000F6CD809105018F5F112309F45DCEE7CDFE
:102B00000E94D80760E081E00E948D090E94130AAC
:102B10000E94CD0A811130C01092D5030E942A0A6A
:102B20009091D50391FF05C0809104018F5F809340
:102B3000040190FF05C0809104018150809304013D
:102B400080910401811102C09092040180910401DE
:102B5000893010F0C09304018091D50383701092E6
:102B6000D503882379F20E942A0A6AE070E080E0A7
:102B700090E00E947504F0CF5090A105552029F1F6
:102B8000C09399050E94A8046B017C0120E9C20E44
:102B900021E0D21EE11CF11C809199058230A9F040
:102BA0000E94A804C616D706E806F90610F4D093CA
:102BB000990586E00E94C8038C016AE070E080E01D
:102BC00090E00E947504012B39F3809199058230C1
:102BD000B1F4209104012150330B42E3429FC00124
:102BE000439F900D112461E0875F9B4F0E944B0D26
:102BF0000E94AF0AC093A10510929B0570CD0E9460
:102C0000AF0A80919B0581112FCF552009F467CD24
:102C100089E0D2CD0E94EB0A62CD0E94D80760E025
:102C200083E00E948D090E94130A0E94CD0A81113F
:102C300030C01092D5030E942A0A9091D50391FFCB
:102C400005C0809104018F5F8093040190FF05C04F
:102C500080910401815080930401809104018111CD
:102C600002C09092040180910401893010F0C09359
:102C700004018091D50383701092D503882379F2E3
:102C80000E942A0A6AE070E080E090E00E947504E9
:102C9000F0CF5090A105552029F1C09399050E94CD
:102CA000A8046B017C0120E9C20E21E0D21EE11CC8
:102CB000F11C809199058230A9F00E94A804C616E3
:102CC000D706E806F90610F4D093990586E00E942D
:102CD000C8038C016AE070E080E090E00E94750417
:102CE000012B39F380919905823069F41092A10586
:102CF00010929B05C0939A05109205011092D7037C
:102D00000E94AF0AECCC0E94AF0A80919B05811112
:102D10007FCF5110CFCCE3CC0E947209E0CC1230AF
:102D200009F0DFCC0E94D80766E772E080E00E94DD
:102D3000630960EE71E081E00E94630966EE71E074
:102D400082E00E94630964E872E089E094E00E94F6
:102D50001C0869E972E08BE394E00E941C086EEAAB
:102D600072E08DE694E00E941C0863EC72E08FE94B
:102D700094E00E941C0868ED72E081ED94E00E94EE
:102D80001C086DEE72E083E095E00E941C0862E092
:102D900073E085E395E00E941C0867E173E087E635
:102DA00095E00E941C08809202011092CC0384E0FE
:102DB00080930701109301011092C7030E94230E14
:102DC0000E943A08809107010E94900880910101B9
:102DD0000E947F0864EF71E080E090E00E9475043B
:102DE0000E947209109299050E94AF0A7ACC843031
:102DF00009F4EFC008F489C0853009F07FCC0E9447
:102E0000A8040091CF031091D0032091D1033091F9
:102E1000D203061717072807390708F002C1C09325
:102E200003010E94E8081092D603FBC01092D5035C
:102E300065CC8091D503982F9770933011F138F4B9
:102E40009130F9F0923031F01092D60357CC953092
:102E5000C1F0D0F3897F8093D5030E94A80420910C
:102E6000CD033091CE03620F731F811D911D6093BE
:102E7000CF037093D0038093D1039093D20381E06A
:102E800017C08E7F84608093D5030E94A804209190
:102E9000D3033091D403620F731F811D911D609382
:102EA000CF037093D0038093D1039093D20380E03B
:102EB0000E941008D093D60321CC0E94A804009150
:102EC000CF031091D0032091D1033091D203061784
:102ED00017072807390708F011CC0E94300D0E940F
:102EE000A8042091D3033091D403620F731F811D76
:102EF000911D6093CF037093D0038093D10390937F
:102F0000D20383E08093D603F9CB0E94A8040091FA
:102F1000CF031091D0032091D1033091D203061733
:102F200017072807390708F0E9CB8091D5038C7F74
:102F30008093D5038091CC03811114C00E94A80412
:102F40002091CA033091CB03620F731F811D911D25
:102F50006093CF037093D0038093D1039093D203F7
:102F600084E0D0CF0E942A0A8091D503982F9370D5
:102F700029F783FFE3CF82FF18C00E94A8042091A5
:102F8000CD033091CE03620F731F811D911D60939D
:102F9000CF037093D0038093D1039093D20381E049
:102FA0000E9410081092D50385CF0E94A80420919A
:102FB000D3033091D403620F731F811D911D609361
:102FC000CF037093D0038093D1039093D20380E01A
:102FD000E7CF0E94A8040091CF031091D003209165
:102FE000D1033091D2030617170728073907C8F411
:102FF0000E94E808C09303010E94A8042091C8031E
:103000003091C903620F731F811D911D6093CF031F
:103010007093D0038093D1039093D20385E0809383
:10302000D6030E942A0A8091D503837009F4FECE4C
:10303000C093D60363CBDC01CB01FC01F999FECF31
:1030400006C0F2BDE1BDF89A319600B40D92415030
:103050005040B8F70895F999FECF92BD81BDF89A16
:10306000992780B50895DC01CB0103C02D910E9402
:103070003E1841505040D0F70895262FF999FECFC1
:103080001FBA92BD81BD20BD0FB6F894FA9AF99A85
:103090000FBE019608950E945F180C9440190E947B
:1030A000391958F00E94321940F029F45F3F29F095
:1030B0000C94291951110C9474190C942F190E9415
:1030C000511968F39923B1F3552391F3951B550BCF
:1030D000BB27AA2762177307840738F09F5F5F4FEB
:1030E000220F331F441FAA1FA9F335D00E2E3AF02A
:1030F000E0E832D091505040E695001CCAF72BD042
:10310000FE2F29D0660F771F881FBB1F2617370792
:103110004807AB07B0E809F0BB0B802DBF01FF27C4
:1031200093585F4F3AF09E3F510578F00C9429195F
:103130000C9474195F3FE4F3983ED4F38695779529
:103140006795B795F7959F5FC9F7880F911D96957D
:10315000879597F90895E1E0660F771F881FBB1FD9
:10316000621773078407BA0720F0621B730B840B86
:10317000BA0BEE1F88F7E09508950E94591988F060
:103180009F5798F0B92F9927B751B0F0E1F0660F2B
:10319000771F881F991F1AF0BA95C9F714C0B1306C
:1031A00091F00E947319B1E008950C947319672F80
:1031B000782F8827B85F39F0B93FCCF3869577959B
:1031C0006795B395D9F73EF4909580957095619584
:1031D0007F4F8F4F9F4F0895E89409C097FB3EF4AF
:1031E00090958095709561957F4F8F4F9F4F992354
:1031F000A9F0F92F96E9BB279395F69587957795D2
:103200006795B795F111F8CFFAF4BB0F11F460FF91
:103210001BC06F5F7F4F8F4F9F4F16C0882311F0E9
:1032200096E911C0772321F09EE8872F762F05C0FD
:10323000662371F096E8862F70E060E02AF09A9598
:10324000660F771F881FDAF7880F9695879597F98D
:10325000089597F99F6780E870E060E008959FEF18
:1032600080EC089500240A9416161706180609061D
:10327000089500240A9412161306140605060895EC
:10328000092E0394000C11F4882352F0BB0F40F474
:10329000BF2B11F460FF04C06F5F7F4F8F4F9F4FB4
:1032A000089557FD9058440F551F59F05F3F71F036
:1032B0004795880F97FB991F61F09F3F79F087959D
:1032C0000895121613061406551FF2CF4695F1DF26
:1032D00008C0161617061806991FF1CF86957105B6
:1032E000610508940895E894BB2766277727CB01EA
:1032F00097F90895991B79E004C0991F961708F073
:10330000961B881F7A95C9F78095089597FB072E1D
:1033100016F4009407D077FD09D00E94A01907FC8D
:1033200005D03EF4909581959F4F089570956195D5
:103330007F4F0895EE0FFF1F0590F491E02D099443
:10334000AA1BBB1B51E107C0AA1FBB1FA617B707CB
:1033500010F0A61BB70B881F991F5A95A9F78095E7
:0C3360009095BC01CD010895F894FFCFBA
:10336C002002190101010104D580A83FD300408D32
:10337C00142002A4A1C8DA128180DB40D9F1B0A6D6
:10338C00AF2C0330033203F001340336032C033823
:10339C00033C032C036D022C03400300000000329D
:1033AC00039202BF027F03F002CE02E20200000091
:1033BC000058062B06C80601062406110602062034
:1033CC0020300030313233343536373839003C4216
:1033DC004B3E003C534B3E005245414459203E3E2F
:1033EC000053454E44204D4553534147452000451D
:1033FC00444954204D4553534147452000524543C1
:10340C00204D4553534147452000414243444546D6
:10341C004748494A4B4C4D4E4F50515253545556B8
:10342C005758595A303132333435363738392023DE
:10343C005E25004649524D57415245205245560093
:10344C00312E303063004D41522032332C32303229
:10345C0033005350454544204953002057504D00EC
:10346C004F4B004B455945522049530049414D4261
:10347C00494320410049414D424943204200564FA7
:10348C004C554D452049530053494445544F4E45E6
:10349C00204953004B455953574150204953004C38
:1034AC004544204953005052455353205041444405
:1034BC004C4500544F205341564520434F4E4649EE
:1034CC004700434F4E46494755524154494F4E00D1
:1034DC00534156454400464143544F52592052459E
:1034EC00534554004D534731203031323334353647
:1034FC003738392041424344004D53473220303154
:10350C0032333435363738392041424344004D5339
:10351C004733203031323334353637383920414255
:10352C004344004D53473420303132333435363731
:10353C0038392041424344004D5347352030313215
:10354C00333435363738392041424344004D5347E4
:10355C003620303132333435363738392041424316
:10356C0044004D53473720303132333435363738F9
:10357C00392041424344004D5347382030313233D7
:10358C003435363738392041424344004F464600E3
:10359C003100320034003500363030003730300026
:0835AC0041435449564500005B
:00000001FF
